{
  "contractName": "SupplyChain",
  "abi": [
    {
      "constant": true,
      "inputs": [],
      "name": "skuCount",
      "outputs": [
        {
          "name": "",
          "type": "uint256"
        }
      ],
      "payable": false,
      "stateMutability": "view",
      "type": "function"
    },
    {
      "constant": true,
      "inputs": [
        {
          "name": "",
          "type": "uint256"
        }
      ],
      "name": "items",
      "outputs": [
        {
          "name": "name",
          "type": "bytes24"
        },
        {
          "name": "sku",
          "type": "uint256"
        },
        {
          "name": "price",
          "type": "uint256"
        },
        {
          "name": "state",
          "type": "uint256"
        },
        {
          "name": "seller",
          "type": "address"
        },
        {
          "name": "buyer",
          "type": "address"
        }
      ],
      "payable": false,
      "stateMutability": "view",
      "type": "function"
    },
    {
      "inputs": [],
      "payable": false,
      "stateMutability": "nonpayable",
      "type": "constructor"
    },
    {
      "anonymous": false,
      "inputs": [
        {
          "indexed": false,
          "name": "sku",
          "type": "uint256"
        }
      ],
      "name": "ForSale",
      "type": "event"
    },
    {
      "anonymous": false,
      "inputs": [
        {
          "indexed": false,
          "name": "sku",
          "type": "uint256"
        }
      ],
      "name": "Sold",
      "type": "event"
    },
    {
      "anonymous": false,
      "inputs": [
        {
          "indexed": false,
          "name": "sku",
          "type": "uint256"
        }
      ],
      "name": "Shipped",
      "type": "event"
    },
    {
      "constant": false,
      "inputs": [
        {
          "name": "_name",
          "type": "bytes24"
        },
        {
          "name": "_price",
          "type": "uint256"
        }
      ],
      "name": "addItem",
      "outputs": [
        {
          "name": "",
          "type": "uint256"
        }
      ],
      "payable": false,
      "stateMutability": "nonpayable",
      "type": "function"
    },
    {
      "constant": false,
      "inputs": [
        {
          "name": "_itemToShipSku",
          "type": "uint256"
        }
      ],
      "name": "shipItem",
      "outputs": [],
      "payable": false,
      "stateMutability": "nonpayable",
      "type": "function"
    },
    {
      "constant": false,
      "inputs": [
        {
          "name": "_itemToBuySku",
          "type": "uint256"
        }
      ],
      "name": "buyItem",
      "outputs": [],
      "payable": true,
      "stateMutability": "payable",
      "type": "function"
    },
    {
      "constant": true,
      "inputs": [
        {
          "name": "_skuNo",
          "type": "uint256"
        }
      ],
      "name": "fetchItem",
      "outputs": [
        {
          "name": "_name",
          "type": "bytes24"
        },
        {
          "name": "_sku",
          "type": "uint256"
        },
        {
          "name": "_price",
          "type": "uint256"
        },
        {
          "name": "_seller",
          "type": "address"
        },
        {
          "name": "_buyer",
          "type": "address"
        },
        {
          "name": "_state",
          "type": "uint256"
        }
      ],
      "payable": false,
      "stateMutability": "view",
      "type": "function"
    }
  ],
  "bytecode": "0x608060405234801561001057600080fd5b50336000806101000a81548173ffffffffffffffffffffffffffffffffffffffff021916908373ffffffffffffffffffffffffffffffffffffffff16021790555060006001819055506109e8806100686000396000f3fe608060405260043610610078576000357c0100000000000000000000000000000000000000000000000000000000900463ffffffff168063227024731461007d578063ad4b9cfb146100a8578063bfb231d214610188578063e5e25f6f14610268578063e7fb74c7146102cc578063f61c899a146102fa575b600080fd5b34801561008957600080fd5b50610092610335565b6040518082815260200191505060405180910390f35b3480156100b457600080fd5b506100e1600480360360208110156100cb57600080fd5b810190808035906020019092919050505061033b565b604051808767ffffffffffffffff191667ffffffffffffffff191681526020018681526020018581526020018473ffffffffffffffffffffffffffffffffffffffff1673ffffffffffffffffffffffffffffffffffffffff1681526020018373ffffffffffffffffffffffffffffffffffffffff1673ffffffffffffffffffffffffffffffffffffffff168152602001828152602001965050505050505060405180910390f35b34801561019457600080fd5b506101c1600480360360208110156101ab57600080fd5b8101908080359060200190929190505050610459565b604051808767ffffffffffffffff191667ffffffffffffffff191681526020018681526020018581526020018481526020018373ffffffffffffffffffffffffffffffffffffffff1673ffffffffffffffffffffffffffffffffffffffff1681526020018273ffffffffffffffffffffffffffffffffffffffff1673ffffffffffffffffffffffffffffffffffffffff168152602001965050505050505060405180910390f35b34801561027457600080fd5b506102b66004803603604081101561028b57600080fd5b81019080803567ffffffffffffffff19169060200190929190803590602001909291905050506104ea565b6040518082815260200191505060405180910390f35b6102f8600480360360208110156102e257600080fd5b81019080803590602001909291905050506106b4565b005b34801561030657600080fd5b506103336004803603602081101561031d57600080fd5b81019080803590602001909291905050506108b7565b005b60015481565b60008060008060008060008711151561035357600080fd5b6002600088815260200190815260200160002060000160009054906101000a90046801000000000000000002955060026000888152602001908152602001600020600101549450600260008881526020019081526020016000206002015493506002600088815260200190815260200160002060040160009054906101000a900473ffffffffffffffffffffffffffffffffffffffff1692506002600088815260200190815260200160002060050160009054906101000a900473ffffffffffffffffffffffffffffffffffffffff1691506002600088815260200190815260200160002060030154905085858585858595509550955095509550955091939550919395565b60026020528060005260406000206000915090508060000160009054906101000a90046801000000000000000002908060010154908060020154908060030154908060040160009054906101000a900473ffffffffffffffffffffffffffffffffffffffff16908060050160009054906101000a900473ffffffffffffffffffffffffffffffffffffffff16905086565b60007fa96ae0fc3224ebd79eebfe54bd130cc9cb94416cddd1f2386115e00b725324686001546040518082815260200191505060405180910390a160c0604051908101604052808467ffffffffffffffff1916815260200160015481526020018381526020016000600381111561055d57fe5b81526020013373ffffffffffffffffffffffffffffffffffffffff168152602001600073ffffffffffffffffffffffffffffffffffffffff1681525060026000600154815260200190815260200160002060008201518160000160006101000a81548177ffffffffffffffffffffffffffffffffffffffffffffffff0219169083680100000000000000009004021790555060208201518160010155604082015181600201556060820151816003015560808201518160040160006101000a81548173ffffffffffffffffffffffffffffffffffffffff021916908373ffffffffffffffffffffffffffffffffffffffff16021790555060a08201518160050160006101000a81548173ffffffffffffffffffffffffffffffffffffffff021916908373ffffffffffffffffffffffffffffffffffffffff1602179055509050506001805401600181905550600154905092915050565b80600060038111156106c257fe5b60026000838152602001908152602001600020600301541415156106e557600080fd5b600260008381526020019081526020016000206002015480341015151561070b57600080fd5b8260006002600086815260200190815260200160002090506001600381111561073057fe5b8160030181905550338160050160006101000a81548173ffffffffffffffffffffffffffffffffffffffff021916908373ffffffffffffffffffffffffffffffffffffffff1602179055508060040160009054906101000a900473ffffffffffffffffffffffffffffffffffffffff1673ffffffffffffffffffffffffffffffffffffffff166108fc82600201549081150290604051600060405180830381858888f193505050501580156107e9573d6000803e3d6000fd5b507f92f64ca637d023f354075a4be751b169c1a8a9ccb6d33cdd0cb3520543995727856040518082815260200191505060405180910390a150600060026000838152602001908152602001600020905060008160020154340390508160050160009054906101000a900473ffffffffffffffffffffffffffffffffffffffff1673ffffffffffffffffffffffffffffffffffffffff166108fc829081150290604051600060405180830381858888f193505050501580156108ae573d6000803e3d6000fd5b50505050505050565b80600160038111156108c557fe5b60026000838152602001908152602001600020600301541415156108e857600080fd5b6002600083815260200190815260200160002060040160009054906101000a900473ffffffffffffffffffffffffffffffffffffffff168073ffffffffffffffffffffffffffffffffffffffff163373ffffffffffffffffffffffffffffffffffffffff1614151561095957600080fd5b6001600381111561096657fe5b60026000858152602001908152602001600020600301819055507ff00b9a5725b80c54016f42114f6ed7792d22eecb116011c4afac29c57bef6c95836040518082815260200191505060405180910390a150505056fea165627a7a72305820988d76c10835d6ea92ac9bcb0764783c1c7990bf9fc3373ac7805f71420c57b10029",
  "source": "pragma solidity ^0.5.0;\n\ncontract SupplyChain {\n\n  // Owner is the person who deploy the smartContract\n  address owner;\n  // skuCount to track the most recent sku # */\n  uint public skuCount;\n\n  struct Item {\n    bytes24 name;\n    uint sku;\n    uint price;\n    uint state;\n    address payable seller;\n    address payable buyer;\n\n\n  }\n\n  /* A public mapping that maps the SKU (a number) to an Item defined in the Struct Item.\n\n  */\n  mapping(uint => Item) public items;\n\n  // Possible states of an item at any given time in its supplyChain life cycle\n  enum State {ForSale, Sold, Shipped, Received}\n  event ForSale(uint sku);\n  event Sold(uint sku);\n  event Shipped(uint sku);\n\n  modifier paidEnough(uint _price){ require(msg.value >= _price); _; }\n  modifier checkValue(uint _sku){\n    _;\n    Item storage myItem = items[_sku];\n\n    uint amountToRefund = msg.value - myItem.price;\n    myItem.buyer.transfer(amountToRefund);\n  }\n\n  modifier verifyCaller(address _address){\n    require(msg.sender == _address);\n    _;\n  }\n  modifier forSale(uint _sku){ require(items[_sku].state == uint(State.ForSale)); _; }\n  modifier sold(uint _sku){require(items[_sku].state == uint(State.Sold)); _; }\n\n  constructor() public {\n    owner = msg.sender;\n    skuCount = 0;\n  }\n\n  // functions\n\n  function addItem(bytes24 _name, uint _price) public returns(uint ){\n    emit ForSale(skuCount);\n\n    items[skuCount] = Item({name: _name, sku: skuCount, price: _price, state: uint(State.ForSale), seller: msg.sender, buyer: address(0)});\n    skuCount = skuCount + 1;\n\n    //result = true;\n    return skuCount;\n\n  }\n\n  function shipItem(uint _itemToShipSku) public sold(_itemToShipSku) verifyCaller(items[_itemToShipSku].seller){\n\n    items[_itemToShipSku].state = uint(State.Sold);\n    emit Shipped(_itemToShipSku);\n  }\n\n  function buyItem(uint _itemToBuySku)\n    public payable forSale(_itemToBuySku) paidEnough(items[_itemToBuySku].price) checkValue(_itemToBuySku)\n\n  {\n    Item storage myItem = items[_itemToBuySku];\n    //Setting the state of the item to sold should be done first so that other buyer will not be allowed to buy the same item at the same time.\n    myItem.state = uint(State.Sold);\n    //Transfer of ownership should happen befor transfering value. Otherwise, the transfer of value will not happen\n    myItem.buyer = msg.sender;\n    myItem.seller.transfer(myItem.price);\n    //myItem.buyer = msg.sender;\n\n    emit Sold(_itemToBuySku);\n  }\n\n  function fetchItem(uint _skuNo) view public returns(bytes24 _name, uint _sku, uint _price, address _seller, address _buyer, uint _state){\n\n    require(_skuNo > 0);\n\n    _name = items[_skuNo].name;\n    _sku = items[_skuNo].sku;\n    _price = items[_skuNo].price;\n    _seller = items[_skuNo].seller;\n    _buyer = items[_skuNo].buyer;\n    _state = uint(items[_skuNo].state);\n\n    return (_name, _sku, _price, _seller, _buyer, _state);\n\n  }\n\n\n}\n",
  "sourcePath": "/home/hyperledger/dapp/ethereum_supplyChain/contracts/SupplyChain.sol",
  "compiler": {
    "name": "solc",
    "version": "0.5.0+commit.1d4f565a.Emscripten.clang"
  },
  "schemaVersion": "3.0.0",
  "updatedAt": "2018-12-29T04:40:18.563Z",
  "devdoc": {
    "methods": {}
  },
  "userdoc": {
    "methods": {}
  }
}