{
  "contractName": "SupplyChain",
  "abi": [
    {
      "constant": true,
      "inputs": [],
      "name": "skuCount",
      "outputs": [
        {
          "name": "",
          "type": "uint256"
        }
      ],
      "payable": false,
      "stateMutability": "view",
      "type": "function"
    },
    {
      "constant": true,
      "inputs": [
        {
          "name": "",
          "type": "uint256"
        }
      ],
      "name": "items",
      "outputs": [
        {
          "name": "name",
          "type": "bytes32"
        },
        {
          "name": "sku",
          "type": "uint256"
        },
        {
          "name": "price",
          "type": "uint256"
        },
        {
          "name": "seller",
          "type": "address"
        },
        {
          "name": "buyer",
          "type": "address"
        },
        {
          "name": "state",
          "type": "uint256"
        }
      ],
      "payable": false,
      "stateMutability": "view",
      "type": "function"
    },
    {
      "inputs": [],
      "payable": false,
      "stateMutability": "nonpayable",
      "type": "constructor"
    },
    {
      "anonymous": false,
      "inputs": [
        {
          "indexed": false,
          "name": "sku",
          "type": "uint256"
        }
      ],
      "name": "ForSale",
      "type": "event"
    },
    {
      "constant": false,
      "inputs": [
        {
          "name": "_name",
          "type": "bytes32"
        },
        {
          "name": "_price",
          "type": "uint256"
        }
      ],
      "name": "addItem",
      "outputs": [
        {
          "name": "result",
          "type": "bool"
        }
      ],
      "payable": false,
      "stateMutability": "nonpayable",
      "type": "function"
    },
    {
      "constant": true,
      "inputs": [
        {
          "name": "_skuNo",
          "type": "uint256"
        }
      ],
      "name": "fetchItem",
      "outputs": [
        {
          "name": "_name",
          "type": "bytes32"
        },
        {
          "name": "_sku",
          "type": "uint256"
        },
        {
          "name": "_price",
          "type": "uint256"
        },
        {
          "name": "_seller",
          "type": "address"
        },
        {
          "name": "_buyer",
          "type": "address"
        },
        {
          "name": "_state",
          "type": "uint256"
        }
      ],
      "payable": false,
      "stateMutability": "view",
      "type": "function"
    }
  ],
  "bytecode": "0x608060405234801561001057600080fd5b50336000806101000a81548173ffffffffffffffffffffffffffffffffffffffff021916908373ffffffffffffffffffffffffffffffffffffffff16021790555060006001819055506105b5806100686000396000f3fe608060405260043610610062576000357c0100000000000000000000000000000000000000000000000000000000900463ffffffff1680632270247314610067578063ad4b9cfb14610092578063bfb231d21461015c578063e60451f414610226575b600080fd5b34801561007357600080fd5b5061007c610283565b6040518082815260200191505060405180910390f35b34801561009e57600080fd5b506100cb600480360360208110156100b557600080fd5b8101908080359060200190929190505050610289565b604051808781526020018681526020018581526020018473ffffffffffffffffffffffffffffffffffffffff1673ffffffffffffffffffffffffffffffffffffffff1681526020018373ffffffffffffffffffffffffffffffffffffffff1673ffffffffffffffffffffffffffffffffffffffff168152602001828152602001965050505050505060405180910390f35b34801561016857600080fd5b506101956004803603602081101561017f57600080fd5b8101908080359060200190929190505050610383565b604051808781526020018681526020018581526020018473ffffffffffffffffffffffffffffffffffffffff1673ffffffffffffffffffffffffffffffffffffffff1681526020018373ffffffffffffffffffffffffffffffffffffffff1673ffffffffffffffffffffffffffffffffffffffff168152602001828152602001965050505050505060405180910390f35b34801561023257600080fd5b506102696004803603604081101561024957600080fd5b8101908080359060200190929190803590602001909291905050506103ff565b604051808215151515815260200191505060405180910390f35b60015481565b6000806000806000806004600088815260200190815260200160002060000154955060046000888152602001908152602001600020600101549450600460008881526020019081526020016000206002015493506004600088815260200190815260200160002060030160009054906101000a900473ffffffffffffffffffffffffffffffffffffffff1692506004600088815260200190815260200160002060040160009054906101000a900473ffffffffffffffffffffffffffffffffffffffff1691506004600088815260200190815260200160002060050154905085858585858595509550955095509550955091939550919395565b60046020528060005260406000206000915090508060000154908060010154908060020154908060030160009054906101000a900473ffffffffffffffffffffffffffffffffffffffff16908060040160009054906101000a900473ffffffffffffffffffffffffffffffffffffffff16908060050154905086565b600060c06040519081016040528084815260200160015481526020018381526020013373ffffffffffffffffffffffffffffffffffffffff168152602001600073ffffffffffffffffffffffffffffffffffffffff1681526020016000600381111561046757fe5b81525060046000600154815260200190815260200160002060008201518160000155602082015181600101556040820151816002015560608201518160030160006101000a81548173ffffffffffffffffffffffffffffffffffffffff021916908373ffffffffffffffffffffffffffffffffffffffff16021790555060808201518160040160006101000a81548173ffffffffffffffffffffffffffffffffffffffff021916908373ffffffffffffffffffffffffffffffffffffffff16021790555060a0820151816005015590505060018054016001819055507fa96ae0fc3224ebd79eebfe54bd130cc9cb94416cddd1f2386115e00b725324686001546040518082815260200191505060405180910390a1600190508090509291505056fea165627a7a723058201ad4b3feb17e768a6b7c330b8f090280401f633a13bc1b0757bc8d63a09fb4eb0029",
  "source": "pragma solidity ^0.5.0;\n\ncontract SupplyChain {\n\n  // Owner is the person who deploy the smartContract\n  address owner;\n  // skuCount to track the most recent sku # */\n  uint public skuCount;\n  uint myprice;\n  bytes32 myName;\n\n  struct Item {\n    bytes32 name;\n    uint sku;\n    uint price;\n    address seller;\n    address buyer;\n    uint state;\n\n  }\n\n  /* A public mapping that maps the SKU (a number) to an Item defined in the Struct Item.\n\n  */\n  mapping(uint => Item) public items;\n\n  // Possible states of an item at any given time in its supplyChain life cycle\n  enum State {ForSale, Sold, Shipped, Received}\n  event ForSale(uint sku);\n\n  constructor() public {\n    owner = msg.sender;\n    skuCount = 0;\n  }\n\n  // functions\n\n  function addItem(bytes32 _name, uint _price) public returns(bool result){\n\n    items[skuCount] = Item({name: _name, sku: skuCount, price: _price, seller: msg.sender, buyer: address(0), state: uint(State.ForSale)});\n    skuCount = skuCount + 1;\n\n    emit ForSale(skuCount);\n\n    result = true;\n    return result;\n\n  }\n\n  function fetchItem(uint _skuNo) view public returns(bytes32 _name, uint _sku, uint _price, address _seller, address _buyer, uint _state){\n\n    _name = items[_skuNo].name;\n    _sku = items[_skuNo].sku;\n    _price = items[_skuNo].price;\n    _seller = items[_skuNo].seller;\n    _buyer = items[_skuNo].buyer;\n    _state = uint(items[_skuNo].state);\n\n    return (_name, _sku, _price, _seller, _buyer, _state);\n  }\n\n\n}\n",
  "sourcePath": "/home/hyperledger/dapp/test/ethereum_supplyChain/contracts/SupplyChain.sol",
  "compiler": {
    "name": "solc",
    "version": "0.5.0+commit.1d4f565a.Emscripten.clang"
  },
  "schemaVersion": "3.0.0",
  "updatedAt": "2018-12-28T03:31:16.971Z",
  "devdoc": {
    "methods": {}
  },
  "userdoc": {
    "methods": {}
  }
}