{
  "contractName": "SupplyChain",
  "abi": [
    {
      "constant": true,
      "inputs": [],
      "name": "skuCount",
      "outputs": [
        {
          "name": "",
          "type": "uint256"
        }
      ],
      "payable": false,
      "stateMutability": "view",
      "type": "function"
    },
    {
      "constant": true,
      "inputs": [
        {
          "name": "",
          "type": "uint256"
        }
      ],
      "name": "items",
      "outputs": [
        {
          "name": "name",
          "type": "bytes24"
        },
        {
          "name": "sku",
          "type": "uint256"
        },
        {
          "name": "price",
          "type": "uint256"
        },
        {
          "name": "state",
          "type": "uint256"
        },
        {
          "name": "seller",
          "type": "address"
        },
        {
          "name": "buyer",
          "type": "address"
        }
      ],
      "payable": false,
      "stateMutability": "view",
      "type": "function"
    },
    {
      "constant": true,
      "inputs": [
        {
          "name": "",
          "type": "uint256"
        }
      ],
      "name": "allItems",
      "outputs": [
        {
          "name": "name",
          "type": "bytes24"
        },
        {
          "name": "sku",
          "type": "uint256"
        },
        {
          "name": "price",
          "type": "uint256"
        },
        {
          "name": "state",
          "type": "uint256"
        },
        {
          "name": "seller",
          "type": "address"
        },
        {
          "name": "buyer",
          "type": "address"
        }
      ],
      "payable": false,
      "stateMutability": "view",
      "type": "function"
    },
    {
      "inputs": [],
      "payable": false,
      "stateMutability": "nonpayable",
      "type": "constructor"
    },
    {
      "anonymous": false,
      "inputs": [
        {
          "indexed": false,
          "name": "sku",
          "type": "uint256"
        }
      ],
      "name": "ForSale",
      "type": "event"
    },
    {
      "constant": false,
      "inputs": [
        {
          "name": "_name",
          "type": "bytes24"
        },
        {
          "name": "_price",
          "type": "uint256"
        }
      ],
      "name": "addItem",
      "outputs": [
        {
          "name": "result",
          "type": "bool"
        }
      ],
      "payable": false,
      "stateMutability": "nonpayable",
      "type": "function"
    },
    {
      "constant": true,
      "inputs": [
        {
          "name": "_skuNo",
          "type": "uint256"
        }
      ],
      "name": "fetchItem",
      "outputs": [
        {
          "name": "_name",
          "type": "bytes24"
        },
        {
          "name": "_sku",
          "type": "uint256"
        },
        {
          "name": "_price",
          "type": "uint256"
        },
        {
          "name": "_seller",
          "type": "address"
        },
        {
          "name": "_buyer",
          "type": "address"
        },
        {
          "name": "_state",
          "type": "uint256"
        }
      ],
      "payable": false,
      "stateMutability": "view",
      "type": "function"
    }
  ],
  "bytecode": "0x608060405234801561001057600080fd5b50336000806101000a81548173ffffffffffffffffffffffffffffffffffffffff021916908373ffffffffffffffffffffffffffffffffffffffff1602179055506000600181905550610799806100686000396000f3fe60806040526004361061006d576000357c0100000000000000000000000000000000000000000000000000000000900463ffffffff1680632270247314610072578063ad4b9cfb1461009d578063bfb231d21461017d578063e5e25f6f1461025d578063ff68fa6e146102c5575b600080fd5b34801561007e57600080fd5b506100876103a5565b6040518082815260200191505060405180910390f35b3480156100a957600080fd5b506100d6600480360360208110156100c057600080fd5b81019080803590602001909291905050506103ab565b604051808767ffffffffffffffff191667ffffffffffffffff191681526020018681526020018581526020018473ffffffffffffffffffffffffffffffffffffffff1673ffffffffffffffffffffffffffffffffffffffff1681526020018373ffffffffffffffffffffffffffffffffffffffff1673ffffffffffffffffffffffffffffffffffffffff168152602001828152602001965050505050505060405180910390f35b34801561018957600080fd5b506101b6600480360360208110156101a057600080fd5b8101908080359060200190929190505050610470565b604051808767ffffffffffffffff191667ffffffffffffffff191681526020018681526020018581526020018481526020018373ffffffffffffffffffffffffffffffffffffffff1673ffffffffffffffffffffffffffffffffffffffff1681526020018273ffffffffffffffffffffffffffffffffffffffff1673ffffffffffffffffffffffffffffffffffffffff168152602001965050505050505060405180910390f35b34801561026957600080fd5b506102ab6004803603604081101561028057600080fd5b81019080803567ffffffffffffffff1916906020019092919080359060200190929190505050610501565b604051808215151515815260200191505060405180910390f35b3480156102d157600080fd5b506102fe600480360360208110156102e857600080fd5b81019080803590602001909291905050506106cd565b604051808767ffffffffffffffff191667ffffffffffffffff191681526020018681526020018581526020018481526020018373ffffffffffffffffffffffffffffffffffffffff1673ffffffffffffffffffffffffffffffffffffffff1681526020018273ffffffffffffffffffffffffffffffffffffffff1673ffffffffffffffffffffffffffffffffffffffff168152602001965050505050505060405180910390f35b60015481565b60008060008060008060006002888154811015156103c557fe5b906000526020600020906006020190508060000160009054906101000a90046801000000000000000002965080600101549550806002015494508060040160009054906101000a900473ffffffffffffffffffffffffffffffffffffffff1693508060050160009054906101000a900473ffffffffffffffffffffffffffffffffffffffff169250806003015491508686868686869650965096509650965096505091939550919395565b60036020528060005260406000206000915090508060000160009054906101000a90046801000000000000000002908060010154908060020154908060030154908060040160009054906101000a900473ffffffffffffffffffffffffffffffffffffffff16908060050160009054906101000a900473ffffffffffffffffffffffffffffffffffffffff16905086565b600060c0604051908101604052808467ffffffffffffffff1916815260200160015481526020018381526020016000600381111561053b57fe5b81526020013373ffffffffffffffffffffffffffffffffffffffff168152602001600073ffffffffffffffffffffffffffffffffffffffff1681525060036000600154815260200190815260200160002060008201518160000160006101000a81548177ffffffffffffffffffffffffffffffffffffffffffffffff0219169083680100000000000000009004021790555060208201518160010155604082015181600201556060820151816003015560808201518160040160006101000a81548173ffffffffffffffffffffffffffffffffffffffff021916908373ffffffffffffffffffffffffffffffffffffffff16021790555060a08201518160050160006101000a81548173ffffffffffffffffffffffffffffffffffffffff021916908373ffffffffffffffffffffffffffffffffffffffff16021790555090505060018054016001819055507fa96ae0fc3224ebd79eebfe54bd130cc9cb94416cddd1f2386115e00b725324686001546040518082815260200191505060405180910390a16001905080905092915050565b6002818154811015156106dc57fe5b90600052602060002090600602016000915090508060000160009054906101000a90046801000000000000000002908060010154908060020154908060030154908060040160009054906101000a900473ffffffffffffffffffffffffffffffffffffffff16908060050160009054906101000a900473ffffffffffffffffffffffffffffffffffffffff1690508656fea165627a7a72305820dcb7ab7699bf1e176ea567c7673e557a8c6f3fe92c145c5102ac765dbe7b58f40029",
  "source": "pragma solidity ^0.5.0;\n\ncontract SupplyChain {\n\n  // Owner is the person who deploy the smartContract\n  address owner;\n  // skuCount to track the most recent sku # */\n  uint public skuCount;\n\n  struct Item {\n    bytes24 name;\n    uint sku;\n    uint price;\n    uint state;\n    address seller;\n    address buyer;\n\n\n  }\n\nItem[] public allItems;\n  /* A public mapping that maps the SKU (a number) to an Item defined in the Struct Item.\n\n  */\n  mapping(uint => Item) public items;\n\n  // Possible states of an item at any given time in its supplyChain life cycle\n  enum State {ForSale, Sold, Shipped, Received}\n  event ForSale(uint sku);\n\n  constructor() public {\n    owner = msg.sender;\n    skuCount = 0;\n  }\n\n  // functions\n\n  function addItem(bytes24 _name, uint _price) public returns(bool result){\n\n    //Item memory myItem;\n    //items[skuCount] = Item(name: itemName, sku: skuCount, price: _price, seller: msg.sender, buyer: address(0), state: State.ForSale);\n    items[skuCount] = Item({name: _name, sku: skuCount, price: _price, state: uint(State.ForSale), seller: msg.sender, buyer: address(0)});\n    skuCount = skuCount + 1;\n    //allItems.push(myItem);\n\n    emit ForSale(skuCount);\n\n    result = true;\n    return result;\n\n  }\n\n  function fetchItem(uint _skuNo) view public returns(bytes24 _name, uint _sku, uint _price, address _seller, address _buyer, uint _state){\n    Item storage myItes = allItems[_skuNo];\n\n    //require(_skuNo > 0);\n\n    _name = myItes.name;\n    _sku = myItes.sku;\n    _price = myItes.price;\n    _seller = myItes.seller;\n    _buyer = myItes.buyer;\n    _state = uint(myItes.state);\n\n    return (_name, _sku, _price, _seller, _buyer, _state);\n  }\n\n\n}\n",
  "sourcePath": "/home/hyperledger/dapp/ethereum_supplyChain/contracts/SupplyChain.sol",
  "compiler": {
    "name": "solc",
    "version": "0.5.0+commit.1d4f565a.Emscripten.clang"
  },
  "schemaVersion": "3.0.0",
  "updatedAt": "2018-12-28T12:16:02.604Z",
  "devdoc": {
    "methods": {}
  },
  "userdoc": {
    "methods": {}
  }
}