{
  "contractName": "SupplyChain",
  "abi": [
    {
      "constant": true,
      "inputs": [],
      "name": "skuCount",
      "outputs": [
        {
          "name": "",
          "type": "uint256"
        }
      ],
      "payable": false,
      "stateMutability": "view",
      "type": "function"
    },
    {
      "constant": true,
      "inputs": [
        {
          "name": "",
          "type": "uint256"
        }
      ],
      "name": "items",
      "outputs": [
        {
          "name": "name",
          "type": "bytes24"
        },
        {
          "name": "sku",
          "type": "uint256"
        },
        {
          "name": "price",
          "type": "uint256"
        },
        {
          "name": "state",
          "type": "uint256"
        },
        {
          "name": "seller",
          "type": "address"
        },
        {
          "name": "buyer",
          "type": "address"
        }
      ],
      "payable": false,
      "stateMutability": "view",
      "type": "function"
    },
    {
      "inputs": [],
      "payable": false,
      "stateMutability": "nonpayable",
      "type": "constructor"
    },
    {
      "anonymous": false,
      "inputs": [
        {
          "indexed": false,
          "name": "sku",
          "type": "uint256"
        }
      ],
      "name": "ForSale",
      "type": "event"
    },
    {
      "anonymous": false,
      "inputs": [
        {
          "indexed": false,
          "name": "sku",
          "type": "uint256"
        }
      ],
      "name": "Sold",
      "type": "event"
    },
    {
      "anonymous": false,
      "inputs": [
        {
          "indexed": false,
          "name": "sku",
          "type": "uint256"
        }
      ],
      "name": "Shipped",
      "type": "event"
    },
    {
      "anonymous": false,
      "inputs": [
        {
          "indexed": false,
          "name": "sku",
          "type": "uint256"
        }
      ],
      "name": "Received",
      "type": "event"
    },
    {
      "constant": false,
      "inputs": [
        {
          "name": "_name",
          "type": "bytes24"
        },
        {
          "name": "_price",
          "type": "uint256"
        }
      ],
      "name": "addItem",
      "outputs": [
        {
          "name": "",
          "type": "uint256"
        }
      ],
      "payable": false,
      "stateMutability": "nonpayable",
      "type": "function"
    },
    {
      "constant": false,
      "inputs": [
        {
          "name": "_shippedItemSku",
          "type": "uint256"
        }
      ],
      "name": "receiveItem",
      "outputs": [],
      "payable": false,
      "stateMutability": "nonpayable",
      "type": "function"
    },
    {
      "constant": false,
      "inputs": [
        {
          "name": "_itemToShipSku",
          "type": "uint256"
        }
      ],
      "name": "shipItem",
      "outputs": [],
      "payable": false,
      "stateMutability": "nonpayable",
      "type": "function"
    },
    {
      "constant": false,
      "inputs": [
        {
          "name": "_itemToBuySku",
          "type": "uint256"
        }
      ],
      "name": "buyItem",
      "outputs": [],
      "payable": true,
      "stateMutability": "payable",
      "type": "function"
    },
    {
      "constant": true,
      "inputs": [
        {
          "name": "_skuNo",
          "type": "uint256"
        }
      ],
      "name": "fetchItem",
      "outputs": [
        {
          "name": "_name",
          "type": "bytes24"
        },
        {
          "name": "_sku",
          "type": "uint256"
        },
        {
          "name": "_price",
          "type": "uint256"
        },
        {
          "name": "_seller",
          "type": "address"
        },
        {
          "name": "_buyer",
          "type": "address"
        },
        {
          "name": "_state",
          "type": "uint256"
        }
      ],
      "payable": false,
      "stateMutability": "view",
      "type": "function"
    }
  ],
  "bytecode": "0x608060405234801561001057600080fd5b50336000806101000a81548173ffffffffffffffffffffffffffffffffffffffff021916908373ffffffffffffffffffffffffffffffffffffffff1602179055506000600181905550610b38806100686000396000f3fe608060405260043610610083576000357c0100000000000000000000000000000000000000000000000000000000900463ffffffff1680632270247314610088578063a26be999146100b3578063ad4b9cfb146100ee578063bfb231d2146101ce578063e5e25f6f146102ae578063e7fb74c714610312578063f61c899a14610340575b600080fd5b34801561009457600080fd5b5061009d61037b565b6040518082815260200191505060405180910390f35b3480156100bf57600080fd5b506100ec600480360360208110156100d657600080fd5b8101908080359060200190929190505050610381565b005b3480156100fa57600080fd5b506101276004803603602081101561011157600080fd5b810190808035906020019092919050505061048b565b604051808767ffffffffffffffff191667ffffffffffffffff191681526020018681526020018581526020018473ffffffffffffffffffffffffffffffffffffffff1673ffffffffffffffffffffffffffffffffffffffff1681526020018373ffffffffffffffffffffffffffffffffffffffff1673ffffffffffffffffffffffffffffffffffffffff168152602001828152602001965050505050505060405180910390f35b3480156101da57600080fd5b50610207600480360360208110156101f157600080fd5b81019080803590602001909291905050506105a9565b604051808767ffffffffffffffff191667ffffffffffffffff191681526020018681526020018581526020018481526020018373ffffffffffffffffffffffffffffffffffffffff1673ffffffffffffffffffffffffffffffffffffffff1681526020018273ffffffffffffffffffffffffffffffffffffffff1673ffffffffffffffffffffffffffffffffffffffff168152602001965050505050505060405180910390f35b3480156102ba57600080fd5b506102fc600480360360408110156102d157600080fd5b81019080803567ffffffffffffffff191690602001909291908035906020019092919050505061063a565b6040518082815260200191505060405180910390f35b61033e6004803603602081101561032857600080fd5b8101908080359060200190929190505050610804565b005b34801561034c57600080fd5b506103796004803603602081101561036357600080fd5b8101908080359060200190929190505050610a07565b005b60015481565b806002600083815260200190815260200160002060050160009054906101000a900473ffffffffffffffffffffffffffffffffffffffff168073ffffffffffffffffffffffffffffffffffffffff163373ffffffffffffffffffffffffffffffffffffffff161415156103f357600080fd5b600060026000858152602001908152602001600020905060038081111561041657fe5b81600301819055507fa8142743f8f70a4c26f3691cf4ed59718381fb2f18070ec52be1f1022d855557846040518082815260200191505060405180910390a150506002600381111561046457fe5b600260008381526020019081526020016000206003015414151561048757600080fd5b5050565b6000806000806000806000871115156104a357600080fd5b6002600088815260200190815260200160002060000160009054906101000a90046801000000000000000002955060026000888152602001908152602001600020600101549450600260008881526020019081526020016000206002015493506002600088815260200190815260200160002060040160009054906101000a900473ffffffffffffffffffffffffffffffffffffffff1692506002600088815260200190815260200160002060050160009054906101000a900473ffffffffffffffffffffffffffffffffffffffff1691506002600088815260200190815260200160002060030154905085858585858595509550955095509550955091939550919395565b60026020528060005260406000206000915090508060000160009054906101000a90046801000000000000000002908060010154908060020154908060030154908060040160009054906101000a900473ffffffffffffffffffffffffffffffffffffffff16908060050160009054906101000a900473ffffffffffffffffffffffffffffffffffffffff16905086565b60007fa96ae0fc3224ebd79eebfe54bd130cc9cb94416cddd1f2386115e00b725324686001546040518082815260200191505060405180910390a160c0604051908101604052808467ffffffffffffffff191681526020016001548152602001838152602001600060038111156106ad57fe5b81526020013373ffffffffffffffffffffffffffffffffffffffff168152602001600073ffffffffffffffffffffffffffffffffffffffff1681525060026000600154815260200190815260200160002060008201518160000160006101000a81548177ffffffffffffffffffffffffffffffffffffffffffffffff0219169083680100000000000000009004021790555060208201518160010155604082015181600201556060820151816003015560808201518160040160006101000a81548173ffffffffffffffffffffffffffffffffffffffff021916908373ffffffffffffffffffffffffffffffffffffffff16021790555060a08201518160050160006101000a81548173ffffffffffffffffffffffffffffffffffffffff021916908373ffffffffffffffffffffffffffffffffffffffff1602179055509050506001805401600181905550600154905092915050565b806000600381111561081257fe5b600260008381526020019081526020016000206003015414151561083557600080fd5b600260008381526020019081526020016000206002015480341015151561085b57600080fd5b8260006002600086815260200190815260200160002090506001600381111561088057fe5b8160030181905550338160050160006101000a81548173ffffffffffffffffffffffffffffffffffffffff021916908373ffffffffffffffffffffffffffffffffffffffff1602179055508060040160009054906101000a900473ffffffffffffffffffffffffffffffffffffffff1673ffffffffffffffffffffffffffffffffffffffff166108fc82600201549081150290604051600060405180830381858888f19350505050158015610939573d6000803e3d6000fd5b507f92f64ca637d023f354075a4be751b169c1a8a9ccb6d33cdd0cb3520543995727856040518082815260200191505060405180910390a150600060026000838152602001908152602001600020905060008160020154340390508160050160009054906101000a900473ffffffffffffffffffffffffffffffffffffffff1673ffffffffffffffffffffffffffffffffffffffff166108fc829081150290604051600060405180830381858888f193505050501580156109fe573d6000803e3d6000fd5b50505050505050565b8060016003811115610a1557fe5b6002600083815260200190815260200160002060030154141515610a3857600080fd5b6002600083815260200190815260200160002060040160009054906101000a900473ffffffffffffffffffffffffffffffffffffffff168073ffffffffffffffffffffffffffffffffffffffff163373ffffffffffffffffffffffffffffffffffffffff16141515610aa957600080fd5b60016003811115610ab657fe5b60026000858152602001908152602001600020600301819055507ff00b9a5725b80c54016f42114f6ed7792d22eecb116011c4afac29c57bef6c95836040518082815260200191505060405180910390a150505056fea165627a7a723058200459c18ee65342a71ec76e23536799c9022f4ac596dcac8fd32f8469574e6c300029",
  "source": "pragma solidity ^0.5.0;\n\ncontract SupplyChain {\n\n  // Owner is the person who deploy the smartContract\n  address owner;\n  // skuCount to track the most recent sku # */\n  uint public skuCount;\n\n  struct Item {\n    bytes24 name;\n    uint sku;\n    uint price;\n    uint state;\n    address payable seller;\n    address payable buyer;\n\n\n  }\n\n  /* A public mapping that maps the SKU (a number) to an Item defined in the Struct Item.\n\n  */\n  mapping(uint => Item) public items;\n\n  // Possible states of an item at any given time in its supplyChain life cycle\n  enum State {ForSale, Sold, Shipped, Received}\n\n  event ForSale(uint sku);\n  event Sold(uint sku);\n  event Shipped(uint sku);\n  event Received(uint sku);\n\n  modifier paidEnough(uint _price){ require(msg.value >= _price); _; }\n  modifier checkValue(uint _sku){\n    _;\n    Item storage myItem = items[_sku];\n\n    uint amountToRefund = msg.value - myItem.price;\n    myItem.buyer.transfer(amountToRefund);\n  }\n\n  modifier verifyCaller(address _address){\n    require(msg.sender == _address);\n    _;\n  }\n  modifier forSale(uint _sku){ require(items[_sku].state == uint(State.ForSale)); _; }\n  modifier sold(uint _sku){require(items[_sku].state == uint(State.Sold)); _; }\n  modifier shipped(uint _sku){\n    _;\n    require(items[_sku].state == uint(State.Shipped));\n  }\n\n  constructor() public {\n    owner = msg.sender;\n    skuCount = 0;\n  }\n\n  // functions\n\n  function addItem(bytes24 _name, uint _price) public returns(uint ){\n    emit ForSale(skuCount);\n\n    items[skuCount] = Item({name: _name, sku: skuCount, price: _price, state: uint(State.ForSale), seller: msg.sender, buyer: address(0)});\n    skuCount = skuCount + 1;\n\n    //result = true;\n    return skuCount;\n\n  }\n\n  function receiveItem(uint _shippedItemSku) public shipped(_shippedItemSku) verifyCaller(items[_shippedItemSku].buyer) {\n    Item storage myItem = items[_shippedItemSku];\n\n    myItem.state = uint(State.Received);\n    emit Received(_shippedItemSku);\n  }\n\n  function shipItem(uint _itemToShipSku) public sold(_itemToShipSku) verifyCaller(items[_itemToShipSku].seller){\n\n    items[_itemToShipSku].state = uint(State.Sold);\n    emit Shipped(_itemToShipSku);\n  }\n\n  function buyItem(uint _itemToBuySku)\n    public payable forSale(_itemToBuySku) paidEnough(items[_itemToBuySku].price) checkValue(_itemToBuySku)\n\n  {\n    Item storage myItem = items[_itemToBuySku];\n    //Setting the state of the item to sold should be done first so that other buyer will not be allowed to buy the same item at the same time.\n    myItem.state = uint(State.Sold);\n    //Transfer of ownership should happen befor transfering value. Otherwise, the transfer of value will not happen\n    myItem.buyer = msg.sender;\n    myItem.seller.transfer(myItem.price);\n    //myItem.buyer = msg.sender;\n\n    emit Sold(_itemToBuySku);\n  }\n\n  function fetchItem(uint _skuNo) view public returns(bytes24 _name, uint _sku, uint _price, address _seller, address _buyer, uint _state){\n\n    require(_skuNo > 0);\n\n    _name = items[_skuNo].name;\n    _sku = items[_skuNo].sku;\n    _price = items[_skuNo].price;\n    _seller = items[_skuNo].seller;\n    _buyer = items[_skuNo].buyer;\n    _state = uint(items[_skuNo].state);\n\n    return (_name, _sku, _price, _seller, _buyer, _state);\n\n  }\n\n\n}\n",
  "sourcePath": "/home/hyperledger/dapp/ethereum_supplyChain/contracts/SupplyChain.sol",
  "compiler": {
    "name": "solc",
    "version": "0.5.0+commit.1d4f565a.Emscripten.clang"
  },
  "schemaVersion": "3.0.0",
  "updatedAt": "2019-01-01T13:09:04.422Z",
  "devdoc": {
    "methods": {}
  },
  "userdoc": {
    "methods": {}
  }
}